:1000000009C036C120C077C01EC01DC01CC01BC0A7
:100010001AC019C011241FBECFE9CDBF10E0A0E661
:10002000B0E0E6EAF3E003C0C89531960D92A03641
:10003000B107D1F710E0A0E6B0E001C01D92AF36E5
:10004000B107E1F722C0DCCF80E886BD16BCC198BD
:10005000C09AB89A1FBC83E083BF85B7816085BF13
:100060008BB780648BBF86E886B9E199FECF22E02A
:1000700030E0E6E6F0E02EBBE09A8DB381932F5F8F
:100080003F4F24303105B9F70895CFE9D0E0DEBF06
:10009000CDBFDADF10926D00789462E053E067B96B
:1000A000369A3699FECF369A3699FECF84B1809330
:1000B000640085B157B9369A3699FECF369A36998B
:1000C000FECF84B18093650085B12091640080915A
:1000D0006500409166003327840F912D911D811B8F
:1000E00091098217930714F010E002C01091670085
:1000F00010936800D4CF1F920F920FB60F92112465
:100100008F939F93EF93FF9389B78D7F89BF9091D2
:100110006D00913069F4B99A1092630080EF82BF4C
:1001200088B7826088BF89B7826089BF92E095C036
:10013000923029F4B9981092630090E18EC0892F13
:10014000807B09F489C0809163008F5F8093630096
:1001500080916300813011F41092620080916200FE
:10016000869580936200B19B05C080916200806893
:100170008093620080916300883009F06EC09031F6
:10018000C1F580916200853521F41092620090E201
:100190002BC0809162008E3421F41092620090E8AE
:1001A00023C080916200883491F492E0E199FECFFF
:1001B0009EBBE92FFF27EC59FF4F80818DBBE29A50
:1001C000E19A9F5F943090F31092620004C0809196
:1001D00062008E3B11F090E007C0109260008091A9
:1001E00064008093620098E01092630010926100B6
:1001F00034C09032B9F480916100882329F4809151
:100200006200883249F40CC0809161008730D8F4D4
:1002100080916200853521F01092610090E014C059
:1002200090E212C09038C9F480916100882329F4CB
:10023000809162008093660007C080916200809385
:1002400067001092610090E1809161008F5F809360
:1002500061001092630001C0B99890936D00FF9106
:10026000EF919F918F910F900FBE0F901F90189557
:100270001F920F920FB60F9211242F938F939F937B
:10028000EF93FF9320916D00B19B13C082B7803F25
:1002900018F0222309F07BC082B7833308F477C0BB
:1002A00088B7826088BF8DEF82BF89B7826089BFBF
:1002B00055C088B7826088BF283009F049C0809156
:1002C000620080FFB99A8AEF82BF89B7826089BFD6
:1002D00080916200909160008927817080936E0008
:1002E0008091600086958093600080916E008823E5
:1002F00031F0809160009CE88927809360008091B4
:1003000063008F5F80936300809162008695809385
:100310006200809163008830D1F510926300809173
:1003200061008F5F8093610080916100883019F4D3
:10033000809160000AC080916100893039F1E091BC
:100340006100FF27EC59FF4F8081809362001FC03E
:10035000222331F489B78D7F89BF12BE21E017C0F7
:10036000822F807B31F08CEF82BF89B7826089BF9A
:100370000EC0213029F489B78D7F89BF20E107C0E5
:10038000223029F012BE89B78D7F89BF20E02093EB
:100390006D00FF91EF919F918F912F910F900FBE64
:0603A0000F901F9018955C
:00000001FF
